{
  "_format": "hh-sol-artifact-1",
  "contractName": "LandRecord",
  "sourceName": "contracts/LandRecord.sol",
  "abi": [
    {
      "anonymous": false,
      "inputs": [
        {
          "indexed": true,
          "internalType": "uint256",
          "name": "landId",
          "type": "uint256"
        },
        {
          "indexed": false,
          "internalType": "string",
          "name": "location",
          "type": "string"
        },
        {
          "indexed": false,
          "internalType": "uint256",
          "name": "area",
          "type": "uint256"
        },
        {
          "indexed": true,
          "internalType": "address",
          "name": "owner",
          "type": "address"
        }
      ],
      "name": "LandRegistered",
      "type": "event"
    },
    {
      "anonymous": false,
      "inputs": [
        {
          "indexed": true,
          "internalType": "uint256",
          "name": "landId",
          "type": "uint256"
        },
        {
          "indexed": true,
          "internalType": "address",
          "name": "newOwner",
          "type": "address"
        }
      ],
      "name": "PropertyTransferred",
      "type": "event"
    },
    {
      "inputs": [],
      "name": "landCount",
      "outputs": [
        {
          "internalType": "uint256",
          "name": "",
          "type": "uint256"
        }
      ],
      "stateMutability": "view",
      "type": "function"
    },
    {
      "inputs": [
        {
          "internalType": "uint256",
          "name": "",
          "type": "uint256"
        }
      ],
      "name": "lands",
      "outputs": [
        {
          "internalType": "uint256",
          "name": "id",
          "type": "uint256"
        },
        {
          "internalType": "string",
          "name": "location",
          "type": "string"
        },
        {
          "internalType": "uint256",
          "name": "area",
          "type": "uint256"
        },
        {
          "internalType": "address",
          "name": "owner",
          "type": "address"
        },
        {
          "internalType": "bool",
          "name": "exists",
          "type": "bool"
        }
      ],
      "stateMutability": "view",
      "type": "function"
    },
    {
      "inputs": [
        {
          "internalType": "string",
          "name": "location",
          "type": "string"
        },
        {
          "internalType": "uint256",
          "name": "area",
          "type": "uint256"
        }
      ],
      "name": "registerLand",
      "outputs": [],
      "stateMutability": "nonpayable",
      "type": "function"
    },
    {
      "inputs": [
        {
          "internalType": "uint256",
          "name": "landId",
          "type": "uint256"
        },
        {
          "internalType": "address",
          "name": "newOwner",
          "type": "address"
        }
      ],
      "name": "transferOwnership",
      "outputs": [],
      "stateMutability": "nonpayable",
      "type": "function"
    },
    {
      "inputs": [
        {
          "internalType": "uint256",
          "name": "landId",
          "type": "uint256"
        }
      ],
      "name": "verifyOwnership",
      "outputs": [
        {
          "internalType": "address",
          "name": "",
          "type": "address"
        }
      ],
      "stateMutability": "view",
      "type": "function"
    }
  ],
  "bytecode": "0x6080604052348015600f57600080fd5b50610e5a8061001f6000396000f3fe608060405234801561001057600080fd5b50600436106100575760003560e01c806329507f731461005c578063ce924ed914610078578063d7bce65814610094578063de611ee5146100b2578063e261f1e5146100e2575b600080fd5b6100766004803603810190610071919061064a565b610116565b005b610092600480360381019061008d91906107d0565b6102b7565b005b61009c610410565b6040516100a9919061083b565b60405180910390f35b6100cc60048036038101906100c79190610856565b610416565b6040516100d99190610892565b60405180910390f35b6100fc60048036038101906100f79190610856565b6104b7565b60405161010d959493929190610947565b60405180910390f35b60008083815260200190815260200160002060030160149054906101000a900460ff16610178576040517f08c379a000000000000000000000000000000000000000000000000000000000815260040161016f906109ed565b60405180910390fd5b3373ffffffffffffffffffffffffffffffffffffffff1660008084815260200190815260200160002060030160009054906101000a900473ffffffffffffffffffffffffffffffffffffffff1673ffffffffffffffffffffffffffffffffffffffff161461021b576040517f08c379a000000000000000000000000000000000000000000000000000000000815260040161021290610a7f565b60405180910390fd5b8060008084815260200190815260200160002060030160006101000a81548173ffffffffffffffffffffffffffffffffffffffff021916908373ffffffffffffffffffffffffffffffffffffffff1602179055508073ffffffffffffffffffffffffffffffffffffffff16827f8112a0a075a8fbda3b9c8c9cd01686a7922300f54c3793c450bb8ea8e4f41c1b60405160405180910390a35050565b600160008154809291906102ca90610ace565b91905055506040518060a0016040528060015481526020018381526020018281526020013373ffffffffffffffffffffffffffffffffffffffff1681526020016001151581525060008060015481526020019081526020016000206000820151816000015560208201518160010190816103449190610d22565b506040820151816002015560608201518160030160006101000a81548173ffffffffffffffffffffffffffffffffffffffff021916908373ffffffffffffffffffffffffffffffffffffffff16021790555060808201518160030160146101000a81548160ff0219169083151502179055509050503373ffffffffffffffffffffffffffffffffffffffff166001547f53a976a9b9d61df3bb2e08e33448938aea67fb03572279eb18ed48cdd6fad04e8484604051610404929190610df4565b60405180910390a35050565b60015481565b600080600083815260200190815260200160002060030160149054906101000a900460ff1661047a576040517f08c379a0000000000000000000000000000000000000000000000000000000008152600401610471906109ed565b60405180910390fd5b60008083815260200190815260200160002060030160009054906101000a900473ffffffffffffffffffffffffffffffffffffffff169050919050565b60006020528060005260406000206000915090508060000154908060010180546104e090610b45565b80601f016020809104026020016040519081016040528092919081815260200182805461050c90610b45565b80156105595780601f1061052e57610100808354040283529160200191610559565b820191906000526020600020905b81548152906001019060200180831161053c57829003601f168201915b5050505050908060020154908060030160009054906101000a900473ffffffffffffffffffffffffffffffffffffffff16908060030160149054906101000a900460ff16905085565b6000604051905090565b600080fd5b600080fd5b6000819050919050565b6105c9816105b6565b81146105d457600080fd5b50565b6000813590506105e6816105c0565b92915050565b600073ffffffffffffffffffffffffffffffffffffffff82169050919050565b6000610617826105ec565b9050919050565b6106278161060c565b811461063257600080fd5b50565b6000813590506106448161061e565b92915050565b60008060408385031215610661576106606105ac565b5b600061066f858286016105d7565b925050602061068085828601610635565b9150509250929050565b600080fd5b600080fd5b6000601f19601f8301169050919050565b7f4e487b7100000000000000000000000000000000000000000000000000000000600052604160045260246000fd5b6106dd82610694565b810181811067ffffffffffffffff821117156106fc576106fb6106a5565b5b80604052505050565b600061070f6105a2565b905061071b82826106d4565b919050565b600067ffffffffffffffff82111561073b5761073a6106a5565b5b61074482610694565b9050602081019050919050565b82818337600083830152505050565b600061077361076e84610720565b610705565b90508281526020810184848401111561078f5761078e61068f565b5b61079a848285610751565b509392505050565b600082601f8301126107b7576107b661068a565b5b81356107c7848260208601610760565b91505092915050565b600080604083850312156107e7576107e66105ac565b5b600083013567ffffffffffffffff811115610805576108046105b1565b5b610811858286016107a2565b9250506020610822858286016105d7565b9150509250929050565b610835816105b6565b82525050565b6000602082019050610850600083018461082c565b92915050565b60006020828403121561086c5761086b6105ac565b5b600061087a848285016105d7565b91505092915050565b61088c8161060c565b82525050565b60006020820190506108a76000830184610883565b92915050565b600081519050919050565b600082825260208201905092915050565b60005b838110156108e75780820151818401526020810190506108cc565b60008484015250505050565b60006108fe826108ad565b61090881856108b8565b93506109188185602086016108c9565b61092181610694565b840191505092915050565b60008115159050919050565b6109418161092c565b82525050565b600060a08201905061095c600083018861082c565b818103602083015261096e81876108f3565b905061097d604083018661082c565b61098a6060830185610883565b6109976080830184610938565b9695505050505050565b7f4c616e6420646f6573206e6f7420657869737400000000000000000000000000600082015250565b60006109d76013836108b8565b91506109e2826109a1565b602082019050919050565b60006020820190508181036000830152610a06816109ca565b9050919050565b7f4f6e6c7920746865206f776e65722063616e207472616e73666572206f776e6560008201527f7273686970000000000000000000000000000000000000000000000000000000602082015250565b6000610a696025836108b8565b9150610a7482610a0d565b604082019050919050565b60006020820190508181036000830152610a9881610a5c565b9050919050565b7f4e487b7100000000000000000000000000000000000000000000000000000000600052601160045260246000fd5b6000610ad9826105b6565b91507fffffffffffffffffffffffffffffffffffffffffffffffffffffffffffffffff8203610b0b57610b0a610a9f565b5b600182019050919050565b7f4e487b7100000000000000000000000000000000000000000000000000000000600052602260045260246000fd5b60006002820490506001821680610b5d57607f821691505b602082108103610b7057610b6f610b16565b5b50919050565b60008190508160005260206000209050919050565b60006020601f8301049050919050565b600082821b905092915050565b600060088302610bd87fffffffffffffffffffffffffffffffffffffffffffffffffffffffffffffffff82610b9b565b610be28683610b9b565b95508019841693508086168417925050509392505050565b6000819050919050565b6000610c1f610c1a610c15846105b6565b610bfa565b6105b6565b9050919050565b6000819050919050565b610c3983610c04565b610c4d610c4582610c26565b848454610ba8565b825550505050565b600090565b610c62610c55565b610c6d818484610c30565b505050565b5b81811015610c9157610c86600082610c5a565b600181019050610c73565b5050565b601f821115610cd657610ca781610b76565b610cb084610b8b565b81016020851015610cbf578190505b610cd3610ccb85610b8b565b830182610c72565b50505b505050565b600082821c905092915050565b6000610cf960001984600802610cdb565b1980831691505092915050565b6000610d128383610ce8565b9150826002028217905092915050565b610d2b826108ad565b67ffffffffffffffff811115610d4457610d436106a5565b5b610d4e8254610b45565b610d59828285610c95565b600060209050601f831160018114610d8c5760008415610d7a578287015190505b610d848582610d06565b865550610dec565b601f198416610d9a86610b76565b60005b82811015610dc257848901518255600182019150602085019450602081019050610d9d565b86831015610ddf5784890151610ddb601f891682610ce8565b8355505b6001600288020188555050505b505050505050565b60006040820190508181036000830152610e0e81856108f3565b9050610e1d602083018461082c565b939250505056fea264697066735822122046b13bfd1eda7136c1e21a2bbc790a55c10225db2e556c73f505d02dbe2f22c964736f6c634300081c0033",
  "linkReferences": {},
  "deployedLinkReferences": {}
}